S01800007543426F617264426569737069656C652E73726563DA
S113000071C000008EC000008CC000008AC00000D7
S113001088C0000086C0000084C0000082C00000C8
S113002080C000007EC000007CC000007AC00000D8
S113003078C0000076C0000074C0000072C00000E8
S113004070C000006EC000006CC000006AC00000F8
S113005068C0000066C0000064C000007DC30000EA
S113006060C000005EC000005CC000005AC0000018
S113007058C0000056C0000054C0000052C0000028
S113008050C000004EC000004CC000004AC0000038
S113009048C0000046C0000044C0000042C0000048
S11300A040C000003EC000003CC000003AC0000058
S11300B038C0000036C0000034C0000032C0000068
S11300C030C000002EC000002CC000002AC0000078
S11300D028C0000026C0000024C0000022C0000088
S11300E020C0000011241FBECFEFD1E2DEBFCDBF80
S11300F000E00CBF12E0A0E0B2E0E6EDFDE000E0BD
S11301000BBF02C007900D92A437B107D9F722E0C4
S1130110A4E7B2E001C01D92A23FB207E1F702D00A
S113012058C66ECF80E095D180E030D0FDCF82B943
S113013095B90895789483E084BD8BE085BD81E012
S113014080936E0089EF87BD089511BA10BA10929A
S113015008011092070180E480937C008FE0809373
S11301607E008FEF80937D00EAE7F0E087EA8083EA
S113017010927B00808180648083808184FFFDCF26
S1130180EAE7F0E080818F7E8083089590E4909385
S11301907C00883060F0ECE7F0E090818850892B97
S11301A08083EBE7F0E08081886180830AC0ECE71C
S11301B0F0E09081892B8083EBE7F0E08081877EFB
S11301C08083EAE7F0E0808180648083808184FF1B
S11301D0FDCF8FEA94E00197F1F700C00000809111
S11301E0780020917900EAE7F0E090819F7E908387
S11301F090E0922B08952FEF33E0F901E81BF90BFF
S1130200C901861B970B241B350BF093A900E093BF
S1130210A8009093AB008093AA003093AD00209384
S1130220AC0008958EEF8093A0008BE18093A10031
S113023083E08093A7008FEF8093A60040E050E016
S113024060E070E080E090E0D6CF0895882311F05C
S1130250A09A0895A0980895882311F0A19A08956A
S1130260A1980895811104C084B58F7D84BD08953B
S113027094B5906294BD88BD0895EF92FF920F9358
S11302801F93CF93DF937C01EB0181E0DFDF05E077
S113029010E080E0E1DF81E0DFDF01501109C9F700
S11302A080E0D4DF80E0D8DF81E0D6DF83E4E816A5
S11302B0F10419F480E0CADF02C081E0C7DF80E006
S11302C0CBDF81E0C9DF80E0C1DF80E0C5DF81E012
S11302D0C3DF04E010E080E0BFDFC0FF03C081E0C3
S11302E0B5DF02C080E0B2DFD695C79580E0B4DF09
S11302F081E0B2DF0150110971F780E0A7DF04E06B
S113030010E080E0A9DF81E0A7DF01501109C9F7FF
S113031004E010E080E0A0DFC0FF03C081E096DFCE
S113032002C080E093DFD695C79580E095DF81E039
S113033093DF0150110971F780E088DFC4E0D0E059
S113034080E08ADF81E088DF2197D1F781E07EDFDA
S113035087EC90E00197F1F700C00000DF91CF91A6
S11303601F910F91FF90EF9008951F93CF93DF9308
S1130370CDB7DEB765970FB6F894DEBF0FBECDBF1D
S11303809E01205E3F4F4E8D5F8D65E170E0CE0192
S113039001963AD26D8D8C8D90E2899F600D112467
S11303A0606870E083E490E068DF6981662379F037
S11303B010E01F5F70E084E490E05FDFE1E0F0E0D4
S11303C0EC0FFD1FE10FF11D60816111F2CF659605
S11303D00FB6F894DEBF0FBECDBFDF91CF911F9152
S11303E0089561E070E083E490E047DF8FE39FE1EC
S11303F00197F1F700C0000080E392E09F938F9390
S11304001F921F92B2DF0F900F900F900F900895DC
S113041081E022DF80E01ADF64E370E083E490E0AF
S11304202CDF69E070E083E490E027DF60E370E0B4
S113043083E490E022DF6CE070E083E490E01DDF71
S1130440D0DF67E070E083E490E017DF80E00ACF5C
S113045008954F925F926F927F928F929F92AF9284
S1130460BF92CF92DF92EF92FF920F931F93CF939D
S1130470DF93C82F85B785BF12B88FEF81B915B840
S113048084B988B917B88BB91AB88EB91DB87298DF
S113049011BA10BA94E094BB93B3936093BB9D9A42
S11304A097EC9093020198E3909301011092050157
S11304B08093040110920801109207018CE3809349
S11304C00B0110920A01789435DEA2DF3EDEAADE2B
S11304D0CC2309F4B8C08FEFC5DE40E050E06FEFE5
S11304E073E080E090E087DE8DE192E09F938F934C
S11304F01F921F923ADF82E392E09F938F931F92A1
S113050081E08F9332DF88E092E09F938F931F9274
S113051082E08F932ADF87E492E09F938F931F9268
S113052083E08F9322DF8DB79EB740960FB6F89481
S11305309EBF0FBE8DBF88248394C0E0712C992484
S11305409394D0E0CC24C394D12CE12C6894FF2460
S1130550F7F866246394512C09E011E00F2EFCE5B2
S1130560AF2EF2E0BF2EF02D0F2EF3E04F2EF02D24
S1130570992049F0C7010D2E02C0969587950A94DB
S1130580E2F7D5DD08C0C6010D2E02C0880F991F01
S11305900A94E2F7CCDDDF5FD13128F0862D91108B
S11305A0852D982ED0E0882011F0CE5F01C0C25076
S11305B08C2F58DECE3F21F0C83719F4862C01C0A9
S11305C0852C71103BC0F8018081837C91F040E060
S11305D050E066E272E08FEF93E00DDEBF92AF92DF
S11305E01F924F92C2DE0F900F900F900F90762CB7
S11305F025C08FEF9CE70197F1F700C00000B8CF4A
S1130600F0DE80E02FDE80E090E091DD40E050E01D
S113061060E070E080E090E0EEDD109279021092EC
S11306207A0210927B0210927C0210927D02109248
S11306307E0210927F021092800205C0F801808130
S1130640837CB9F6DDCFDF91CF911F910F91FF909D
S1130650EF90DF90CF90BF90AF909F908F907F905E
S11306606F905F904F900895CF93DF93CDB7DEB72F
S113067028970FB6F894DEBF0FBECDBF88E0E0E048
S1130680F2E0DE01119601900D928A95E1F7E5E022
S1130690F1E080818F7B8083E0917602F091770294
S11306A081E090E08C0F9D1FE80FF91F808190E09E
S11306B09093750280937402A2EFB2E022E832E0D4
S11306C0E5E0F1E05E914E918091740290917502A3
S11306D084239523892B21F080818062808303C049
S11306E080818F7D808380818061808380818F7E03
S11306F08083A217B30731F7E5E0F1E08081877FBB
S113070080838081887F8083908180917602892B89
S113071080838081806480838081886080838091ED
S11307207602909177028730910530F40196909388
S113073077028093760207C01092770210927602B5
S113074081E08093780228960FB6F894DEBF0FBE3E
S1130750CDBFDF91CF9108951F920F920FB60F92E4
S113076011240BB60F922F933F934F935F936F9384
S11307707F938F939F93AF93BF93EF93FF932091B6
S1130780790230917A0240917B0250917C0260910F
S11307907D0270917E0280917F0290918002A1E09F
S11307A027D02093790230937A0240937B025093AE
S11307B07C0260937D0270937E0280937F0290930B
S11307C080028091810281114FDFFF91EF91BF91EF
S11307D0AF919F918F917F916F915F914F913F91D5
S11307E02F910F900BBE0F900FBE0F901F90189576
S11307F00024A7FD00942A0F301D401D501D601DCC
S1130800701D801D901D08950F931F93CF93DF9348
S1130810CDB7DEB72E970FB6F894DEBF0FBECDBFAF
S11308208C01FA0186E08C831A83098377FF02C066
S113083060E070E8CB0101979E838D83A901BF011D
S1130840CE01019619D04D815E8157FD0AC02F81DA
S11308503885421753070CF49A01F801E20FF31F8D
S113086010822E960FB6F894DEBF0FBECDBFDF9177
S1130870CF911F910F9108952F923F924F925F92C3
S11308806F927F928F929F92AF92BF92CF92DF929C
S1130890EF92FF920F931F93CF93DF93CDB7DEB701
S11308A02B970FB6F894DEBF0FBECDBF6C017B0152
S11308B08A01FC0117821682838181FFBFC1CE01A8
S11308C001963C01F6019381F70193FD859193FF15
S11308D081917F01882309F4ADC1853239F493FDF8
S11308E0859193FF81917F01853221F4B60190E0D7
S11308F0D6D1E8CF912C212C312CFFE1F315D8F07F
S11309008B3279F038F4803279F08332A1F4232DDC
S113091020611DC08D3261F0803369F4232D216084
S113092016C0832D8260382EE32DE4603E2E2AC04B
S1130930F32DF8601DC037FC2DC020ED280F2A30A0
S113094040F08E32B9F436FC75C1232D2064322E6A
S113095019C036FE06C08AE0989E200D1124922EFE
S113096011C0EAE02E9E200D1124222EF32DF062F8
S11309703F2E08C08C3621F4832D8068382E02C0A7
S1130980883641F4F70193FD859193FF81917F01AE
S11309908111B3CF982F9F7D9554933028F40C5F29
S11309A01F4F9FE399830DC0833631F0833771F075
S11309B0833509F055C020C0F801808189830E5F1A
S11309C01F4F88248394912C530112C02801F2E014
S11309D04F0E511CF801A080B18036FE03C0692D72
S11309E070E002C06FEF7FEFC5014ED14C01820170
S11309F0F32DFF773F2E15C0280122E0420E511C33
S1130A00F801A080B18036FE03C0692D70E002C0F9
S1130A106FEF7FEFC5012DD14C01F32DF0683F2E10
S1130A20820133FC19C0822D90E088169906A0F447
S1130A30B60180E290E033D12A94F5CFF50137FC7A
S1130A40859137FE81915F01B60190E028D1211094
S1130A502A9421E0821A91088114910479F7E1C063
S1130A60843611F0893639F5F80137FE07C0608104
S1130A707181828193810C5F1F4F08C060817181F5
S1130A80072E000C880B990B0E5F1F4FF32DFF767A
S1130A903F2E97FF09C090958095709561957F4F83
S1130AA08F4F9F4FF0683F2E2AE030E0A30133D1EF
S1130AB0882E861844C0853731F4232D2F7EB22E1C
S1130AC02AE030E025C0932D997FB92E8F36C1F0EE
S1130AD018F4883579F0AEC0803719F0883721F0E2
S1130AE0A9C0E92FE061BE2EB4FE0DC0FB2DF46059
S1130AF0BF2E09C034FE0AC0292F2660B22E06C0BC
S1130B0028E030E005C020E130E002C020E132E01E
S1130B10F801B7FE07C060817181828193810C5F07
S1130B201F4F06C06081718180E090E00E5F1F4F0F
S1130B30A301F1D0882E8618FB2DFF773F2E36FEB9
S1130B400DC0232D2E7FA22E891458F434FE0BC021
S1130B5032FC09C0832D8E7EA82E05C0B82CA32C90
S1130B6003C0B82C01C0B92CA4FE0FC0FE01E80DCF
S1130B70F11D8081803321F49A2D997EA92E09C01C
S1130B80A2FE06C0B394B39404C08A2D867809F0FB
S1130B90B394A3FC10C0A0FE06C0B21480F4280CC9
S1130BA0922C9B180DC0B21458F4B60180E290E068
S1130BB076D0B394F8CFB21418F42B1802C0982C42
S1130BC0212CA4FE0FC0B60180E390E068D0A2FE01
S1130BD016C0A1FC03C088E790E002C088E590E05D
S1130BE0B6010CC08A2D867851F0A1FE02C08BE2BA
S1130BF001C080E2A7FC8DE2B60190E050D08914D8
S1130C0030F4B60180E390E04AD09A94F8CF8A9405
S1130C10F301E80DF11D8081B60190E040D0811010
S1130C20F6CF222009F44ECEB60180E290E037D010
S1130C302A94F7CFF6018681978102C08FEF9FEF48
S1130C402B960FB6F894DEBF0FBECDBFDF91CF91C8
S1130C501F910F91FF90EF90DF90CF90BF90AF90D6
S1130C609F908F907F906F905F904F903F902F90C8
S1130C700895FC010590615070400110D8F78095EB
S1130C8090958E0F9F1F0895FC0161507040019054
S1130C900110D8F7809590958E0F9F1F08950F939C
S1130CA01F93CF93DF93FB01238121FD03C08FEFBB
S1130CB09FEF2CC022FF16C04681578124813581C5
S1130CC04217530744F4A081B1819D012F5F3F4F28
S1130CD0318320838C93268137812F5F3F4F378365
S1130CE0268314C08B01EC01FB010084F185E02D07
S1130CF01995892BE1F6D80116968D919C91179739
S1130D00019617969C938E931697CE01DF91CF91FF
S1130D101F910F910895FA01AA27283051F120312B
S1130D2081F1E8946F936E7F6E5F7F4F8F4F9F4F7B
S1130D30AF4FB1E03ED0B4E03CD0670F781F891FBD
S1130D409A1FA11D680F791F8A1F911DA11D6A0F8B
S1130D50711D811D911DA11D20D009F468943F913E
S1130D602AE0269F11243019305D3193DEF6CF013D
S1130D700895462F4770405D4193B3E00FD0C9F703
S1130D80F6CF462F4F70405D4A3318F0495D31FD70
S1130D904052419302D0A9F7EACFB4E0A6959795C3
S1130DA0879577956795BA95C9F700976105710599
S1130DB008959B01AC010A2E0694579547953795E3
S1130DC02795BA95C9F7620F731F841F951FA01D3D
S1090DD00895F894FFCF22
S1130DD601020408102040802D2D2D2D2D2D2D2DA2
S1130DE62D2D2D2D2D2D2D2D2D2D2D2D002020207D
S1130DF620202075432D426F61726420202020201C
S1130E06200041546D6567613235363020617420A7
S1130E163136204D487A00507265737320616E79BD
S1130E26206B657920746F2072756E0020207265C0
S1130E366C6561736520616C6C206B657973202029
S1070E46003A00006A
S9030000FC
